{
  "contractName": "DeDiTContract",
  "abi": [
    {
      "inputs": [],
      "stateMutability": "nonpayable",
      "type": "constructor"
    },
    {
      "inputs": [
        {
          "internalType": "address",
          "name": "sender",
          "type": "address"
        },
        {
          "internalType": "uint256",
          "name": "tokenId",
          "type": "uint256"
        },
        {
          "internalType": "address",
          "name": "owner",
          "type": "address"
        }
      ],
      "name": "ERC721IncorrectOwner",
      "type": "error"
    },
    {
      "inputs": [
        {
          "internalType": "address",
          "name": "operator",
          "type": "address"
        },
        {
          "internalType": "uint256",
          "name": "tokenId",
          "type": "uint256"
        }
      ],
      "name": "ERC721InsufficientApproval",
      "type": "error"
    },
    {
      "inputs": [
        {
          "internalType": "address",
          "name": "approver",
          "type": "address"
        }
      ],
      "name": "ERC721InvalidApprover",
      "type": "error"
    },
    {
      "inputs": [
        {
          "internalType": "address",
          "name": "operator",
          "type": "address"
        }
      ],
      "name": "ERC721InvalidOperator",
      "type": "error"
    },
    {
      "inputs": [
        {
          "internalType": "address",
          "name": "owner",
          "type": "address"
        }
      ],
      "name": "ERC721InvalidOwner",
      "type": "error"
    },
    {
      "inputs": [
        {
          "internalType": "address",
          "name": "receiver",
          "type": "address"
        }
      ],
      "name": "ERC721InvalidReceiver",
      "type": "error"
    },
    {
      "inputs": [
        {
          "internalType": "address",
          "name": "sender",
          "type": "address"
        }
      ],
      "name": "ERC721InvalidSender",
      "type": "error"
    },
    {
      "inputs": [
        {
          "internalType": "uint256",
          "name": "tokenId",
          "type": "uint256"
        }
      ],
      "name": "ERC721NonexistentToken",
      "type": "error"
    },
    {
      "inputs": [
        {
          "internalType": "address",
          "name": "owner",
          "type": "address"
        }
      ],
      "name": "OwnableInvalidOwner",
      "type": "error"
    },
    {
      "inputs": [
        {
          "internalType": "address",
          "name": "account",
          "type": "address"
        }
      ],
      "name": "OwnableUnauthorizedAccount",
      "type": "error"
    },
    {
      "anonymous": false,
      "inputs": [
        {
          "indexed": true,
          "internalType": "address",
          "name": "owner",
          "type": "address"
        },
        {
          "indexed": true,
          "internalType": "address",
          "name": "approved",
          "type": "address"
        },
        {
          "indexed": true,
          "internalType": "uint256",
          "name": "tokenId",
          "type": "uint256"
        }
      ],
      "name": "Approval",
      "type": "event"
    },
    {
      "anonymous": false,
      "inputs": [
        {
          "indexed": true,
          "internalType": "address",
          "name": "owner",
          "type": "address"
        },
        {
          "indexed": true,
          "internalType": "address",
          "name": "operator",
          "type": "address"
        },
        {
          "indexed": false,
          "internalType": "bool",
          "name": "approved",
          "type": "bool"
        }
      ],
      "name": "ApprovalForAll",
      "type": "event"
    },
    {
      "anonymous": false,
      "inputs": [
        {
          "indexed": true,
          "internalType": "address",
          "name": "previousOwner",
          "type": "address"
        },
        {
          "indexed": true,
          "internalType": "address",
          "name": "newOwner",
          "type": "address"
        }
      ],
      "name": "OwnershipTransferred",
      "type": "event"
    },
    {
      "anonymous": false,
      "inputs": [
        {
          "indexed": true,
          "internalType": "uint256",
          "name": "tokenId",
          "type": "uint256"
        },
        {
          "indexed": false,
          "internalType": "int32",
          "name": "newTemperature",
          "type": "int32"
        }
      ],
      "name": "TemperatureUpdated",
      "type": "event"
    },
    {
      "anonymous": false,
      "inputs": [
        {
          "indexed": true,
          "internalType": "address",
          "name": "from",
          "type": "address"
        },
        {
          "indexed": true,
          "internalType": "address",
          "name": "to",
          "type": "address"
        },
        {
          "indexed": true,
          "internalType": "uint256",
          "name": "tokenId",
          "type": "uint256"
        }
      ],
      "name": "Transfer",
      "type": "event"
    },
    {
      "anonymous": false,
      "inputs": [
        {
          "indexed": true,
          "internalType": "address",
          "name": "to",
          "type": "address"
        },
        {
          "indexed": true,
          "internalType": "uint256",
          "name": "tokenId",
          "type": "uint256"
        }
      ],
      "name": "VialMinted",
      "type": "event"
    },
    {
      "inputs": [
        {
          "internalType": "address",
          "name": "to",
          "type": "address"
        },
        {
          "internalType": "uint256",
          "name": "tokenId",
          "type": "uint256"
        }
      ],
      "name": "approve",
      "outputs": [],
      "stateMutability": "nonpayable",
      "type": "function"
    },
    {
      "inputs": [
        {
          "internalType": "address",
          "name": "owner",
          "type": "address"
        }
      ],
      "name": "balanceOf",
      "outputs": [
        {
          "internalType": "uint256",
          "name": "",
          "type": "uint256"
        }
      ],
      "stateMutability": "view",
      "type": "function"
    },
    {
      "inputs": [
        {
          "internalType": "uint256",
          "name": "tokenId",
          "type": "uint256"
        }
      ],
      "name": "getApproved",
      "outputs": [
        {
          "internalType": "address",
          "name": "",
          "type": "address"
        }
      ],
      "stateMutability": "view",
      "type": "function"
    },
    {
      "inputs": [
        {
          "internalType": "address",
          "name": "owner",
          "type": "address"
        },
        {
          "internalType": "address",
          "name": "operator",
          "type": "address"
        }
      ],
      "name": "isApprovedForAll",
      "outputs": [
        {
          "internalType": "bool",
          "name": "",
          "type": "bool"
        }
      ],
      "stateMutability": "view",
      "type": "function"
    },
    {
      "inputs": [],
      "name": "name",
      "outputs": [
        {
          "internalType": "string",
          "name": "",
          "type": "string"
        }
      ],
      "stateMutability": "view",
      "type": "function"
    },
    {
      "inputs": [],
      "name": "owner",
      "outputs": [
        {
          "internalType": "address",
          "name": "",
          "type": "address"
        }
      ],
      "stateMutability": "view",
      "type": "function"
    },
    {
      "inputs": [
        {
          "internalType": "uint256",
          "name": "tokenId",
          "type": "uint256"
        }
      ],
      "name": "ownerOf",
      "outputs": [
        {
          "internalType": "address",
          "name": "",
          "type": "address"
        }
      ],
      "stateMutability": "view",
      "type": "function"
    },
    {
      "inputs": [],
      "name": "ratesBlob",
      "outputs": [
        {
          "internalType": "bytes",
          "name": "",
          "type": "bytes"
        }
      ],
      "stateMutability": "view",
      "type": "function"
    },
    {
      "inputs": [],
      "name": "renounceOwnership",
      "outputs": [],
      "stateMutability": "nonpayable",
      "type": "function"
    },
    {
      "inputs": [
        {
          "internalType": "address",
          "name": "from",
          "type": "address"
        },
        {
          "internalType": "address",
          "name": "to",
          "type": "address"
        },
        {
          "internalType": "uint256",
          "name": "tokenId",
          "type": "uint256"
        }
      ],
      "name": "safeTransferFrom",
      "outputs": [],
      "stateMutability": "nonpayable",
      "type": "function"
    },
    {
      "inputs": [
        {
          "internalType": "address",
          "name": "from",
          "type": "address"
        },
        {
          "internalType": "address",
          "name": "to",
          "type": "address"
        },
        {
          "internalType": "uint256",
          "name": "tokenId",
          "type": "uint256"
        },
        {
          "internalType": "bytes",
          "name": "data",
          "type": "bytes"
        }
      ],
      "name": "safeTransferFrom",
      "outputs": [],
      "stateMutability": "nonpayable",
      "type": "function"
    },
    {
      "inputs": [
        {
          "internalType": "address",
          "name": "operator",
          "type": "address"
        },
        {
          "internalType": "bool",
          "name": "approved",
          "type": "bool"
        }
      ],
      "name": "setApprovalForAll",
      "outputs": [],
      "stateMutability": "nonpayable",
      "type": "function"
    },
    {
      "inputs": [
        {
          "internalType": "bytes4",
          "name": "interfaceId",
          "type": "bytes4"
        }
      ],
      "name": "supportsInterface",
      "outputs": [
        {
          "internalType": "bool",
          "name": "",
          "type": "bool"
        }
      ],
      "stateMutability": "view",
      "type": "function"
    },
    {
      "inputs": [],
      "name": "symbol",
      "outputs": [
        {
          "internalType": "string",
          "name": "",
          "type": "string"
        }
      ],
      "stateMutability": "view",
      "type": "function"
    },
    {
      "inputs": [
        {
          "internalType": "uint256",
          "name": "tokenId",
          "type": "uint256"
        }
      ],
      "name": "tokenURI",
      "outputs": [
        {
          "internalType": "string",
          "name": "",
          "type": "string"
        }
      ],
      "stateMutability": "view",
      "type": "function"
    },
    {
      "inputs": [
        {
          "internalType": "address",
          "name": "from",
          "type": "address"
        },
        {
          "internalType": "address",
          "name": "to",
          "type": "address"
        },
        {
          "internalType": "uint256",
          "name": "tokenId",
          "type": "uint256"
        }
      ],
      "name": "transferFrom",
      "outputs": [],
      "stateMutability": "nonpayable",
      "type": "function"
    },
    {
      "inputs": [
        {
          "internalType": "address",
          "name": "newOwner",
          "type": "address"
        }
      ],
      "name": "transferOwnership",
      "outputs": [],
      "stateMutability": "nonpayable",
      "type": "function"
    },
    {
      "inputs": [
        {
          "internalType": "uint256",
          "name": "",
          "type": "uint256"
        }
      ],
      "name": "vials",
      "outputs": [
        {
          "internalType": "int32",
          "name": "temperature",
          "type": "int32"
        },
        {
          "internalType": "uint256",
          "name": "potency",
          "type": "uint256"
        },
        {
          "internalType": "bool",
          "name": "spoiled",
          "type": "bool"
        }
      ],
      "stateMutability": "view",
      "type": "function"
    },
    {
      "inputs": [
        {
          "internalType": "bytes",
          "name": "chunk",
          "type": "bytes"
        },
        {
          "internalType": "uint256",
          "name": "startIndex",
          "type": "uint256"
        }
      ],
      "name": "uploadRates",
      "outputs": [],
      "stateMutability": "nonpayable",
      "type": "function"
    },
    {
      "inputs": [
        {
          "internalType": "uint256",
          "name": "index",
          "type": "uint256"
        }
      ],
      "name": "getRate",
      "outputs": [
        {
          "internalType": "uint256",
          "name": "rate",
          "type": "uint256"
        }
      ],
      "stateMutability": "view",
      "type": "function"
    },
    {
      "inputs": [
        {
          "internalType": "address",
          "name": "to",
          "type": "address"
        },
        {
          "internalType": "uint256",
          "name": "tokenId",
          "type": "uint256"
        }
      ],
      "name": "mint",
      "outputs": [],
      "stateMutability": "nonpayable",
      "type": "function"
    },
    {
      "inputs": [
        {
          "internalType": "uint256",
          "name": "tokenId",
          "type": "uint256"
        },
        {
          "internalType": "int32",
          "name": "newTemp",
          "type": "int32"
        }
      ],
      "name": "updateTemperature",
      "outputs": [],
      "stateMutability": "nonpayable",
      "type": "function"
    },
    {
      "inputs": [
        {
          "internalType": "uint256",
          "name": "tokenId",
          "type": "uint256"
        }
      ],
      "name": "getVialStatus",
      "outputs": [
        {
          "internalType": "int32",
          "name": "temp",
          "type": "int32"
        },
        {
          "internalType": "uint256",
          "name": "potency",
          "type": "uint256"
        },
        {
          "internalType": "bool",
          "name": "spoiled",
          "type": "bool"
        }
      ],
      "stateMutability": "view",
      "type": "function"
    }
  ],
  "bytecode": "0x608060405234801562000010575f80fd5b5033604051806040016040528060058152602001641119511a5560da1b8152506040518060400160405280600381526020016211125560ea1b815250815f90816200005c91906200019f565b5060016200006b82826200019f565b5050506001600160a01b0381166200009c57604051631e4fbdf760e01b81525f600482015260240160405180910390fd5b620000a781620000ae565b5062000267565b600680546001600160a01b038381166001600160a01b0319831681179093556040519116919082907f8be0079c531659141344cd1fd0a4f28419497f9722a3daafe3b4186f6b6457e0905f90a35050565b634e487b7160e01b5f52604160045260245ffd5b600181811c908216806200012857607f821691505b6020821081036200014757634e487b7160e01b5f52602260045260245ffd5b50919050565b601f8211156200019a575f81815260208120601f850160051c81016020861015620001755750805b601f850160051c820191505b81811015620001965782815560010162000181565b5050505b505050565b81516001600160401b03811115620001bb57620001bb620000ff565b620001d381620001cc845462000113565b846200014d565b602080601f83116001811462000209575f8415620001f15750858301515b5f19600386901b1c1916600185901b17855562000196565b5f85815260208120601f198616915b82811015620002395788860151825594840194600190910190840162000218565b50858210156200025757878501515f19600388901b60f8161c191681555b5050505050600190811b01905550565b6116cb80620002755f395ff3fe608060405234801561000f575f80fd5b5060043610610148575f3560e01c80636352211e116100bf578063b88d4fde11610079578063b88d4fde14610320578063c87b56dd14610333578063e804c40814610346578063e985e9c514610359578063f2fde38b1461036c578063feb5d77b1461037f575f80fd5b80636352211e146102c657806370a08231146102d9578063715018a6146102ec5780638da5cb5b146102f457806395d89b4114610305578063a22cb4651461030d575f80fd5b8063187b9bc811610110578063187b9bc8146101dc57806323b872dd1461023457806340c10f191461024757806342842e0e1461025a578063577640941461026d5780635ce810cc146102b3575f80fd5b806301ffc9a71461014c57806306fdde0314610174578063081812fc14610189578063095ea7b3146101b4578063109882df146101c9575b5f80fd5b61015f61015a36600461122f565b610387565b60405190151581526020015b60405180910390f35b61017c6103d8565b60405161016b9190611297565b61019c6101973660046112a9565b610467565b6040516001600160a01b03909116815260200161016b565b6101c76101c23660046112d4565b61048e565b005b6101c76101d73660046112fe565b61049d565b6102126101ea3660046112a9565b60086020525f908152604090208054600182015460029092015460039190910b919060ff1683565b6040805160039490940b8452602084019290925215159082015260600161016b565b6101c761024236600461136f565b61056f565b6101c76102553660046112d4565b6105f8565b6101c761026836600461136f565b6106e5565b6102a561027b3660046112a9565b60075f527fa66cc928b5edb82af9bd49922954155ab7b0942694bea4ce44661d9a8736c688015490565b60405190815260200161016b565b6102126102c13660046112a9565b610704565b61019c6102d43660046112a9565b610798565b6102a56102e73660046113ad565b6107a2565b6101c76107e7565b6006546001600160a01b031661019c565b61017c6107fa565b6101c761031b3660046113c8565b610809565b6101c761032e366004611417565b610814565b61017c6103413660046112a9565b61082c565b6101c76103543660046114f0565b61089d565b61015f610367366004611518565b6109a8565b6101c761037a3660046113ad565b6109d5565b61017c610a12565b5f6001600160e01b031982166380ac58cd60e01b14806103b757506001600160e01b03198216635b5e139f60e01b145b806103d257506301ffc9a760e01b6001600160e01b03198316145b92915050565b60605f80546103e690611544565b80601f016020809104026020016040519081016040528092919081815260200182805461041290611544565b801561045d5780601f106104345761010080835404028352916020019161045d565b820191905f5260205f20905b81548152906001019060200180831161044057829003601f168201915b5050505050905090565b5f61047182610a9e565b505f828152600460205260409020546001600160a01b03166103d2565b610499828233610ad6565b5050565b6104a5610ae3565b6104b0602083611590565b1561050d5760405162461bcd60e51b815260206004820152602260248201527f4368756e6b206d757374206265206d756c7469706c65206f6620333220627974604482015261657360f01b60648201526084015b60405180910390fd5b5f6105196020846115b7565b90505f5b818110156105685760075f52602081028501358382017fa66cc928b5edb82af9bd49922954155ab7b0942694bea4ce44661d9a8736c688015580610560816115ca565b91505061051d565b5050505050565b6001600160a01b03821661059857604051633250574960e11b81525f6004820152602401610504565b5f6105a4838333610b10565b9050836001600160a01b0316816001600160a01b0316146105f2576040516364283d7b60e01b81526001600160a01b0380861660048301526024820184905282166044820152606401610504565b50505050565b610600610ae3565b61060981610c02565b156106475760405162461bcd60e51b815260206004820152600e60248201526d416c72656164792065786973747360901b6044820152606401610504565b6106518282610c70565b6040805160608101825260198152606460208083019182525f83850181815286825260089092528481209351845463ffffffff191663ffffffff90911617845591516001840155516002909201805460ff191692151592909217909155905182916001600160a01b038516917f65dbf594b62ae1f42601d732969c24b86f93b0aaf95f446c6b6a428520aa6b5c9190a35050565b6106ff83838360405180602001604052805f815250610814565b505050565b5f805f61071084610c02565b6107535760405162461bcd60e51b8152602060048201526014602482015273151bdad95b88191bd95cc81b9bdd08195e1a5cdd60621b6044820152606401610504565b5050505f818152600860209081526040918290208251606081018452815460030b808252600183015493820184905260029092015460ff161515930183905293909250565b5f6103d282610a9e565b5f6001600160a01b0382166107cc576040516322718ad960e21b81525f6004820152602401610504565b506001600160a01b03165f9081526003602052604090205490565b6107ef610ae3565b6107f85f610cd1565b565b6060600180546103e690611544565b610499338383610d22565b61081f84848461056f565b6105f23385858585610dc0565b606061083782610a9e565b505f61084d60408051602081019091525f815290565b90505f81511161086b5760405180602001604052805f815250610896565b8061087584610ee7565b6040516020016108869291906115e2565b6040516020818303038152906040525b9392505050565b6108a682610c02565b6108e95760405162461bcd60e51b8152602060048201526014602482015273151bdad95b88191bd95cc81b9bdd08195e1a5cdd60621b6044820152606401610504565b5f828152600860205260409020805463ffffffff191663ffffffff8316178155600a600383900b128061091f575060288260030b135b1561096a57600a8160010154111561095057600a816001015f8282546109459190611610565b9091555061096a9050565b5f60018083019190915560028201805460ff191690911790555b604051600383900b815283907fce7837374b86869c5ff59724a6c01ebcc8868eb6a81ea365e3fd8f71bba2ec149060200160405180910390a2505050565b6001600160a01b039182165f90815260056020908152604080832093909416825291909152205460ff1690565b6109dd610ae3565b6001600160a01b038116610a0657604051631e4fbdf760e01b81525f6004820152602401610504565b610a0f81610cd1565b50565b60078054610a1f90611544565b80601f0160208091040260200160405190810160405280929190818152602001828054610a4b90611544565b8015610a965780601f10610a6d57610100808354040283529160200191610a96565b820191905f5260205f20905b815481529060010190602001808311610a7957829003601f168201915b505050505081565b5f818152600260205260408120546001600160a01b0316806103d257604051637e27328960e01b815260048101849052602401610504565b6106ff8383836001610f77565b6006546001600160a01b031633146107f85760405163118cdaa760e01b8152336004820152602401610504565b5f828152600260205260408120546001600160a01b0390811690831615610b3c57610b3c81848661107b565b6001600160a01b03811615610b7657610b575f855f80610f77565b6001600160a01b0381165f90815260036020526040902080545f190190555b6001600160a01b03851615610ba4576001600160a01b0385165f908152600360205260409020805460010190555b5f8481526002602052604080822080546001600160a01b0319166001600160a01b0389811691821790925591518793918516917fddf252ad1be2c89b69c2b068fc378daa952ba7f163c4a11628f55a4df523b3ef91a4949350505050565b6040516331a9108f60e11b8152600481018290525f903090636352211e90602401602060405180830381865afa925050508015610c5c575060408051601f3d908101601f19168201909252610c5991810190611623565b60015b610c6757505f919050565b50600192915050565b6001600160a01b038216610c9957604051633250574960e11b81525f6004820152602401610504565b5f610ca583835f610b10565b90506001600160a01b038116156106ff576040516339e3563760e11b81525f6004820152602401610504565b600680546001600160a01b038381166001600160a01b0319831681179093556040519116919082907f8be0079c531659141344cd1fd0a4f28419497f9722a3daafe3b4186f6b6457e0905f90a35050565b6001600160a01b038216610d5457604051630b61174360e31b81526001600160a01b0383166004820152602401610504565b6001600160a01b038381165f81815260056020908152604080832094871680845294825291829020805460ff191686151590811790915591519182527f17307eab39ab6107e8899845ad3d59bd9653f200f220920489ca2b5937696c31910160405180910390a3505050565b6001600160a01b0383163b1561056857604051630a85bd0160e11b81526001600160a01b0384169063150b7a0290610e0290889088908790879060040161163e565b6020604051808303815f875af1925050508015610e3c575060408051601f3d908101601f19168201909252610e399181019061167a565b60015b610ea3573d808015610e69576040519150601f19603f3d011682016040523d82523d5f602084013e610e6e565b606091505b5080515f03610e9b57604051633250574960e11b81526001600160a01b0385166004820152602401610504565b805160208201fd5b6001600160e01b03198116630a85bd0160e11b14610edf57604051633250574960e11b81526001600160a01b0385166004820152602401610504565b505050505050565b60605f610ef3836110df565b60010190505f8167ffffffffffffffff811115610f1257610f12611403565b6040519080825280601f01601f191660200182016040528015610f3c576020820181803683370190505b5090508181016020015b5f19016f181899199a1a9b1b9c1cb0b131b232b360811b600a86061a8153600a8504945084610f4657509392505050565b8080610f8b57506001600160a01b03821615155b1561104c575f610f9a84610a9e565b90506001600160a01b03831615801590610fc65750826001600160a01b0316816001600160a01b031614155b8015610fd95750610fd781846109a8565b155b156110025760405163a9fbf51f60e01b81526001600160a01b0384166004820152602401610504565b811561104a5783856001600160a01b0316826001600160a01b03167f8c5be1e5ebec7d5bd14f71427d1e84f3dd0314c0f7b2291e5b200ac8c7c3b92560405160405180910390a45b505b50505f90815260046020526040902080546001600160a01b0319166001600160a01b0392909216919091179055565b6110868383836111b6565b6106ff576001600160a01b0383166110b457604051637e27328960e01b815260048101829052602401610504565b60405163177e802f60e01b81526001600160a01b038316600482015260248101829052604401610504565b5f8072184f03e93ff9f4daa797ed6e38ed64bf6a1f0160401b831061111d5772184f03e93ff9f4daa797ed6e38ed64bf6a1f0160401b830492506040015b6d04ee2d6d415b85acef81000000008310611149576d04ee2d6d415b85acef8100000000830492506020015b662386f26fc10000831061116757662386f26fc10000830492506010015b6305f5e100831061117f576305f5e100830492506008015b612710831061119357612710830492506004015b606483106111a5576064830492506002015b600a83106103d25760010192915050565b5f6001600160a01b038316158015906112125750826001600160a01b0316846001600160a01b031614806111ef57506111ef84846109a8565b8061121257505f828152600460205260409020546001600160a01b038481169116145b949350505050565b6001600160e01b031981168114610a0f575f80fd5b5f6020828403121561123f575f80fd5b81356108968161121a565b5f5b8381101561126457818101518382015260200161124c565b50505f910152565b5f815180845261128381602086016020860161124a565b601f01601f19169290920160200192915050565b602081525f610896602083018461126c565b5f602082840312156112b9575f80fd5b5035919050565b6001600160a01b0381168114610a0f575f80fd5b5f80604083850312156112e5575f80fd5b82356112f0816112c0565b946020939093013593505050565b5f805f60408486031215611310575f80fd5b833567ffffffffffffffff80821115611327575f80fd5b818601915086601f83011261133a575f80fd5b813581811115611348575f80fd5b876020828501011115611359575f80fd5b6020928301989097509590910135949350505050565b5f805f60608486031215611381575f80fd5b833561138c816112c0565b9250602084013561139c816112c0565b929592945050506040919091013590565b5f602082840312156113bd575f80fd5b8135610896816112c0565b5f80604083850312156113d9575f80fd5b82356113e4816112c0565b9150602083013580151581146113f8575f80fd5b809150509250929050565b634e487b7160e01b5f52604160045260245ffd5b5f805f806080858703121561142a575f80fd5b8435611435816112c0565b93506020850135611445816112c0565b925060408501359150606085013567ffffffffffffffff80821115611468575f80fd5b818701915087601f83011261147b575f80fd5b81358181111561148d5761148d611403565b604051601f8201601f19908116603f011681019083821181831017156114b5576114b5611403565b816040528281528a60208487010111156114cd575f80fd5b826020860160208301375f60208483010152809550505050505092959194509250565b5f8060408385031215611501575f80fd5b8235915060208301358060030b81146113f8575f80fd5b5f8060408385031215611529575f80fd5b8235611534816112c0565b915060208301356113f8816112c0565b600181811c9082168061155857607f821691505b60208210810361157657634e487b7160e01b5f52602260045260245ffd5b50919050565b634e487b7160e01b5f52601260045260245ffd5b5f8261159e5761159e61157c565b500690565b634e487b7160e01b5f52601160045260245ffd5b5f826115c5576115c561157c565b500490565b5f600182016115db576115db6115a3565b5060010190565b5f83516115f381846020880161124a565b83519083019061160781836020880161124a565b01949350505050565b818103818111156103d2576103d26115a3565b5f60208284031215611633575f80fd5b8151610896816112c0565b6001600160a01b03858116825284166020820152604081018390526080606082018190525f906116709083018461126c565b9695505050505050565b5f6020828403121561168a575f80fd5b81516108968161121a56fea2646970667358221220aecb55407a2402283eb6dd4aa266d0f2b06daae17d1beac5ff9055dbe044d8e064736f6c63430008140033",
  "immutableReferences": {},
  "source": "// SPDX-License-Identifier: MIT\r\npragma solidity ^0.8.20;\r\n\r\nimport \"@openzeppelin/contracts/token/ERC721/ERC721.sol\";\r\nimport \"@openzeppelin/contracts/access/Ownable.sol\";\r\n\r\n/// @title DeDiTContract - With Chunked Upload + Simple Vial Logic\r\ncontract DeDiTContract is ERC721, Ownable {\r\n\r\n    // ----------------------------------------------------------------------\r\n    // RATE STORAGE (CHUNK UPLOAD)\r\n    // ----------------------------------------------------------------------\r\n\r\n    bytes public ratesBlob; // stores 1001  32-byte values\r\n\r\n    function uploadRates(bytes calldata chunk, uint256 startIndex)\r\n        external\r\n        onlyOwner\r\n    {\r\n        require(chunk.length % 32 == 0, \"Chunk must be multiple of 32 bytes\");\r\n\r\n        uint256 count = chunk.length / 32;\r\n\r\n        for (uint256 i = 0; i < count; i++) {\r\n            bytes32 word;\r\n\r\n            assembly {\r\n                word := calldataload(add(chunk.offset, mul(i, 32)))\r\n            }\r\n\r\n            uint256 slot;\r\n            assembly {\r\n                let base := ratesBlob.slot\r\n                mstore(0x0, base)\r\n                let dataLoc := keccak256(0x0, 32)\r\n\r\n                slot := add(dataLoc, add(startIndex, i))\r\n                sstore(slot, word)\r\n            }\r\n        }\r\n    }\r\n\r\n    function getRate(uint256 index) public view returns (uint256 rate) {\r\n        assembly {\r\n            let base := ratesBlob.slot\r\n            mstore(0x0, base)\r\n            let dataLoc := keccak256(0x0, 32)\r\n            let slot := add(dataLoc, index)\r\n            rate := sload(slot)\r\n        }\r\n    }\r\n\r\n    // ----------------------------------------------------------------------\r\n    // VIAL STRUCT\r\n    // ----------------------------------------------------------------------\r\n\r\n    struct Vial {\r\n        int32 temperature;\r\n        uint256 potency; \r\n        bool spoiled;\r\n    }\r\n\r\n    mapping(uint256 => Vial) public vials;\r\n\r\n    event VialMinted(address indexed to, uint256 indexed tokenId);\r\n    event TemperatureUpdated(uint256 indexed tokenId, int32 newTemperature);\r\n\r\n    constructor() ERC721(\"DeDiT\", \"DIT\") Ownable(msg.sender) {}\r\n\r\n    // ----------------------------------------------------------------------\r\n    // INTERNAL CHECK  REPLACEMENT FOR _exists()\r\n    // ----------------------------------------------------------------------\r\n\r\n    function tokenExists(uint256 tokenId) internal view returns (bool) {\r\n        try this.ownerOf(tokenId) returns (address) {\r\n            return true;\r\n        } catch {\r\n            return false;\r\n        }\r\n    }\r\n\r\n    // ----------------------------------------------------------------------\r\n    // MINT NEW VIAL\r\n    // ----------------------------------------------------------------------\r\n\r\n    function mint(address to, uint256 tokenId) external onlyOwner {\r\n        require(!tokenExists(tokenId), \"Already exists\");\r\n\r\n        _mint(to, tokenId);\r\n\r\n        vials[tokenId] = Vial({\r\n            temperature: 25,\r\n            potency: 100,\r\n            spoiled: false\r\n        });\r\n\r\n        emit VialMinted(to, tokenId);\r\n    }\r\n\r\n    // ----------------------------------------------------------------------\r\n    // MANUAL TEMPERATURE UPDATE\r\n    // ----------------------------------------------------------------------\r\n\r\n    function updateTemperature(uint256 tokenId, int32 newTemp) external {\r\n        require(tokenExists(tokenId), \"Token does not exist\");\r\n\r\n        Vial storage v = vials[tokenId];\r\n        v.temperature = newTemp;\r\n\r\n        if (newTemp < 10 || newTemp > 40) {\r\n            if (v.potency > 10) {\r\n                v.potency -= 10;\r\n            } else {\r\n                v.potency = 0;\r\n                v.spoiled = true;\r\n            }\r\n        }\r\n\r\n        emit TemperatureUpdated(tokenId, newTemp);\r\n    }\r\n\r\n    // ----------------------------------------------------------------------\r\n    // VIEW STATUS\r\n    // ----------------------------------------------------------------------\r\n\r\n    function getVialStatus(uint256 tokenId)\r\n        external\r\n        view\r\n        returns (int32 temp, uint256 potency, bool spoiled)\r\n    {\r\n        require(tokenExists(tokenId), \"Token does not exist\");\r\n\r\n        Vial memory v = vials[tokenId];\r\n        return (v.temperature, v.potency, v.spoiled);\r\n    }\r\n}\r\n",
  "sourcePath": "D:\\DaTwin\\server\\chain\\contracts\\DeDiTContract.sol",
  "compiler": {
    "name": "solc",
    "version": "0.8.20+commit.a1b79de6.Emscripten.clang"
  },
  "schemaVersion": "3.4.16",
  "updatedAt": "2025-11-22T21:41:33.596Z",
  "devdoc": {
    "errors": {
      "ERC721IncorrectOwner(address,uint256,address)": [
        {
          "details": "Indicates an error related to the ownership over a particular token. Used in transfers.",
          "params": {
            "owner": "Address of the current owner of a token.",
            "sender": "Address whose tokens are being transferred.",
            "tokenId": "Identifier number of a token."
          }
        }
      ],
      "ERC721InsufficientApproval(address,uint256)": [
        {
          "details": "Indicates a failure with the `operator`s approval. Used in transfers.",
          "params": {
            "operator": "Address that may be allowed to operate on tokens without being their owner.",
            "tokenId": "Identifier number of a token."
          }
        }
      ],
      "ERC721InvalidApprover(address)": [
        {
          "details": "Indicates a failure with the `approver` of a token to be approved. Used in approvals.",
          "params": {
            "approver": "Address initiating an approval operation."
          }
        }
      ],
      "ERC721InvalidOperator(address)": [
        {
          "details": "Indicates a failure with the `operator` to be approved. Used in approvals.",
          "params": {
            "operator": "Address that may be allowed to operate on tokens without being their owner."
          }
        }
      ],
      "ERC721InvalidOwner(address)": [
        {
          "details": "Indicates that an address can't be an owner. For example, `address(0)` is a forbidden owner in ERC-20. Used in balance queries.",
          "params": {
            "owner": "Address of the current owner of a token."
          }
        }
      ],
      "ERC721InvalidReceiver(address)": [
        {
          "details": "Indicates a failure with the token `receiver`. Used in transfers.",
          "params": {
            "receiver": "Address to which tokens are being transferred."
          }
        }
      ],
      "ERC721InvalidSender(address)": [
        {
          "details": "Indicates a failure with the token `sender`. Used in transfers.",
          "params": {
            "sender": "Address whose tokens are being transferred."
          }
        }
      ],
      "ERC721NonexistentToken(uint256)": [
        {
          "details": "Indicates a `tokenId` whose `owner` is the zero address.",
          "params": {
            "tokenId": "Identifier number of a token."
          }
        }
      ],
      "OwnableInvalidOwner(address)": [
        {
          "details": "The owner is not a valid owner account. (eg. `address(0)`)"
        }
      ],
      "OwnableUnauthorizedAccount(address)": [
        {
          "details": "The caller account is not authorized to perform an operation."
        }
      ]
    },
    "events": {
      "Approval(address,address,uint256)": {
        "details": "Emitted when `owner` enables `approved` to manage the `tokenId` token."
      },
      "ApprovalForAll(address,address,bool)": {
        "details": "Emitted when `owner` enables or disables (`approved`) `operator` to manage all of its assets."
      },
      "Transfer(address,address,uint256)": {
        "details": "Emitted when `tokenId` token is transferred from `from` to `to`."
      }
    },
    "kind": "dev",
    "methods": {
      "approve(address,uint256)": {
        "details": "Gives permission to `to` to transfer `tokenId` token to another account. The approval is cleared when the token is transferred. Only a single account can be approved at a time, so approving the zero address clears previous approvals. Requirements: - The caller must own the token or be an approved operator. - `tokenId` must exist. Emits an {Approval} event."
      },
      "balanceOf(address)": {
        "details": "Returns the number of tokens in ``owner``'s account."
      },
      "getApproved(uint256)": {
        "details": "Returns the account approved for `tokenId` token. Requirements: - `tokenId` must exist."
      },
      "isApprovedForAll(address,address)": {
        "details": "Returns if the `operator` is allowed to manage all of the assets of `owner`. See {setApprovalForAll}"
      },
      "name()": {
        "details": "Returns the token collection name."
      },
      "owner()": {
        "details": "Returns the address of the current owner."
      },
      "ownerOf(uint256)": {
        "details": "Returns the owner of the `tokenId` token. Requirements: - `tokenId` must exist."
      },
      "renounceOwnership()": {
        "details": "Leaves the contract without owner. It will not be possible to call `onlyOwner` functions. Can only be called by the current owner. NOTE: Renouncing ownership will leave the contract without an owner, thereby disabling any functionality that is only available to the owner."
      },
      "safeTransferFrom(address,address,uint256)": {
        "details": "Safely transfers `tokenId` token from `from` to `to`, checking first that contract recipients are aware of the ERC-721 protocol to prevent tokens from being forever locked. Requirements: - `from` cannot be the zero address. - `to` cannot be the zero address. - `tokenId` token must exist and be owned by `from`. - If the caller is not `from`, it must have been allowed to move this token by either {approve} or   {setApprovalForAll}. - If `to` refers to a smart contract, it must implement {IERC721Receiver-onERC721Received}, which is called upon   a safe transfer. Emits a {Transfer} event."
      },
      "safeTransferFrom(address,address,uint256,bytes)": {
        "details": "Safely transfers `tokenId` token from `from` to `to`. Requirements: - `from` cannot be the zero address. - `to` cannot be the zero address. - `tokenId` token must exist and be owned by `from`. - If the caller is not `from`, it must be approved to move this token by either {approve} or {setApprovalForAll}. - If `to` refers to a smart contract, it must implement {IERC721Receiver-onERC721Received}, which is called upon   a safe transfer. Emits a {Transfer} event."
      },
      "setApprovalForAll(address,bool)": {
        "details": "Approve or remove `operator` as an operator for the caller. Operators can call {transferFrom} or {safeTransferFrom} for any token owned by the caller. Requirements: - The `operator` cannot be the address zero. Emits an {ApprovalForAll} event."
      },
      "supportsInterface(bytes4)": {
        "details": "Returns true if this contract implements the interface defined by `interfaceId`. See the corresponding https://eips.ethereum.org/EIPS/eip-165#how-interfaces-are-identified[ERC section] to learn more about how these ids are created. This function call must use less than 30 000 gas."
      },
      "symbol()": {
        "details": "Returns the token collection symbol."
      },
      "tokenURI(uint256)": {
        "details": "Returns the Uniform Resource Identifier (URI) for `tokenId` token."
      },
      "transferFrom(address,address,uint256)": {
        "details": "Transfers `tokenId` token from `from` to `to`. WARNING: Note that the caller is responsible to confirm that the recipient is capable of receiving ERC-721 or else they may be permanently lost. Usage of {safeTransferFrom} prevents loss, though the caller must understand this adds an external call which potentially creates a reentrancy vulnerability. Requirements: - `from` cannot be the zero address. - `to` cannot be the zero address. - `tokenId` token must be owned by `from`. - If the caller is not `from`, it must be approved to move this token by either {approve} or {setApprovalForAll}. Emits a {Transfer} event."
      },
      "transferOwnership(address)": {
        "details": "Transfers ownership of the contract to a new account (`newOwner`). Can only be called by the current owner."
      }
    },
    "title": "DeDiTContract - With Chunked Upload + Simple Vial Logic",
    "version": 1
  },
  "userdoc": {
    "kind": "user",
    "methods": {},
    "version": 1
  }
}